:100000000C942A000C9447000C9447000C94470071
:100010000C9447000C9447000C9447000C94470044
:100020000C9447000C9447000C9447000C94470034
:100030000C9447000C9447000C9447000C94470024
:100040000C945C0B0C9447000C9447000C944700F4
:100050000C94470011241FBECFE5D8E0DEBFCDBF12
:1000600011E0A8E6B1E001C01D92AC36B107E1F79E
:1000700011E0A0E6B0E0E0E9F8E102C005900D92E1
:10008000A836B107D9F70E94F30B0C94460C0C94D8
:100090000000EF92FF920F931F937B018C0120E0F1
:1000A00030E040E05FE40E94CB0288238CF0C8017E
:1000B000B70120E030E040E05FE40E94C1010E940F
:1000C000FB029B01AC01205030404040504806C02C
:1000D000C801B7010E94FB029B01AC01B901CA0132
:1000E0001F910F91FF90EF900895A0E0B0E0EBE733
:1000F000F0E00C940F0CDC012B01FA019C91923082
:1001000008F439C1EB018881823008F433C194309E
:1001100069F4843009F02FC111969C91119789815F
:10012000981709F428C1A0E6B0E025C1843009F48D
:1001300021C18230A9F4923009F01DC19A01AD01AC
:1001400088E0EA010990AE01E90109929E0181501F
:10015000C1F7E201898111969C918923818308C1AD
:10016000923009F407C112962D903C901397EB0141
:100170008A819B811496AD90BD90CD90DC901797AD
:10018000EC80FD800E811F819101281B390BB90184
:1001900037FF04C066277727621B730B6032710537
:1001A0000CF061C0121613066CF537014801062EDB
:1001B00004C096948794779467940A94D2F721E0C8
:1001C00030E040E050E004C0220F331F441F551FB1
:1001D0006A95D2F721503040404050402E213F21B7
:1001E00040235123211531054105510521F021E01E
:1001F00030E040E050E079018A01E628F72808293C
:1002000019293CC0232BD1F1260E371E350146019A
:10021000062E04C096948794779467940A94D2F734
:1002200021E030E040E050E004C0220F331F441FC3
:10023000551F6A95D2F721503040404050402A2146
:100240003B214C215D21211531054105510521F04E
:1002500021E030E040E050E059016A01A628B728CB
:10026000C828D9280BC0821593052CF01C01AA249C
:10027000BB24650103C0EE24FF24870111969C91E5
:10028000D20111968C91981709F445C0992339F041
:10029000A80197012A193B094C095D0906C0A6016E
:1002A00095012E193F09400B510B57FD08C01182D3
:1002B0003382228224833583468357831DC081E0A5
:1002C00081833382228288279927DC01821B930B4A
:1002D000A40BB50B84839583A683B7830DC0220F2F
:1002E000331F441F551F24833583468357838281E0
:1002F000938101979383828324813581468157813D
:10030000DA01C9010197A109B1098F5F9F4FAF4F72
:10031000BF4328F30BC0918333822282EA0CFB1C7B
:100320000C1D1D1DE482F5820683178383E0808304
:10033000248135814681578157FF1AC0C901AA27F8
:1003400097FDA095BA2F81709070A070B0705695EF
:10035000479537952795822B932BA42BB52B848318
:100360009583A683B7838281938101969383828349
:10037000DF0101C0D201CD01CDB7DEB7E2E10C94BF
:100380002B0CA0E2B0E0E7ECF1E00C941B0C6983CD
:100390007A838B839C832D833E834F835887E9E048
:1003A000EE2EF12CEC0EFD1ECE010196B7010E943F
:1003B000EC048E010F5E1F4FCE010596B8010E941E
:1003C000EC048A8991E089278A8BC701B801AE01C4
:1003D000475E5F4F0E9475000E941704A096E6E0FA
:1003E0000C94370CA0E2B0E0E8EFF1E00C941B0CA9
:1003F00069837A838B839C832D833E834F835887C5
:10040000F9E0EF2EF12CEC0EFD1ECE010196B701A6
:100410000E94EC048E010F5E1F4FCE010596B801BD
:100420000E94EC04C701B801AE01475E5F4F0E9415
:1004300075000E941704A096E6E00C94370CA8E122
:10044000B0E0E5E2F2E00C94170C69837A838B83C9
:100450009C832D833E834F835887B9E0EB2EF12C8C
:10046000EC0EFD1ECE010196B7010E94EC048E0138
:100470000F5E1F4FCE010596B8010E94EC0429853E
:10048000223008F47EC03989323010F4B8017CC0C3
:100490008A859A8989278A87243011F0223031F49D
:1004A000231709F06EC060E670E06EC0343039F496
:1004B0001D861E861F86188A1C861B8604C0323045
:1004C00021F484E08987B7015FC02B853C858B8947
:1004D0009C89281B390B3C872B87ED84FE840F8574
:1004E0001889AD88BE88CF88D88CEA14FB040C0527
:1004F0001D0540F4EE0CFF1C001F111F2150304061
:100500003C872B8720E030E040E050E080E090E046
:10051000A0E0B0E460E070E0EA14FB040C051D0507
:1005200040F0282B392B4A2B5B2BEA18FB080C09CF
:100530001D09B695A79597958795EE0CFF1C001F92
:10054000111F6F5F7F4F6F31710531F7DA01C901FC
:100550008F779070A070B07080349105A105B105BF
:1005600061F427FD0AC0E114F1040105110529F029
:10057000205C3F4F4F4F5F4F20782D873E874F873E
:10058000588BBE01675F7F4FCB010E9417046896AE
:10059000EAE00C94330CA8E1B0E0E1EDF2E00C9459
:1005A0001B0C69837A838B839C832D833E834F83CB
:1005B000588789E0E82EF12CEC0EFD1ECE01019645
:1005C000B7010E94EC048E010F5E1F4FCE0105960D
:1005D000B8010E94EC048985823040F0898982301C
:1005E00028F0C701B8010E94640501C08FEF68962A
:1005F000E6E00C94370CACE0B0E0E1E0F3E00C9402
:100600001F0C69837A838B839C83CE010196BE0184
:100610006B5F7F4F0E94EC048D81823061F18230EC
:1006200050F1843021F48E81882351F12EC02F8126
:10063000388537FD20C06E812F3131051CF06623CF
:10064000F9F023C08EE190E0821B930B29853A8557
:100650004B855C8504C056954795379527958A95B7
:10066000D2F76623B1F050954095309521953F4FD4
:100670004F4F5F4F0EC020E030E040E050E009C037
:100680002FEF3FEF4FEF5FE704C020E030E040E0A6
:1006900050E8B901CA012C96E2E00C943B0CA8E0AA
:1006A000B0E0E5E5F3E00C94170C7B018C016115DB
:1006B00071058105910519F482E0898360C083E0AA
:1006C00089838EE1C82ED12CDC82CB82ED82FE8222
:1006D0000F831887C801B7010E94C803FC01319736
:1006E000F7FF3BC0222733272E1B3F0B5701680122
:1006F000022E04C0D694C794B794A7940A94D2F754
:1007000040E050E060E070E081E090E0A0E0B0E028
:1007100004C0880F991FAA1FBB1F2A95D2F7019703
:10072000A109B1098E219F21A023B1230097A10522
:10073000B10521F041E050E060E070E04A295B291A
:100740006C297D294D835E836F8378878EE190E0ED
:100750008E1B9F0B9C838B8312C0309781F00E2ED3
:1007600004C0EE0CFF1C001F111F0A94D2F7ED828B
:10077000FE820F831887CE1ADF0ADC82CB821A82B0
:10078000CE0101960E9417042896EAE00C94330CDF
:10079000EF92FF920F931F937B018C0180E0E8168C
:1007A00080E0F80681E0080780E0180788F48FEF02
:1007B000E816F1040105110531F028F088E090E019
:1007C000A0E0B0E017C080E090E0A0E0B0E012C090
:1007D00080E0E81680E0F80680E0080781E018076E
:1007E00028F088E190E0A0E0B0E004C080E190E073
:1007F000A0E0B0E020E230E040E050E0281B390B00
:100800004A0B5B0B04C016950795F794E7948A95FD
:10081000D2F7F701E859FF4F8081281B31094109C0
:100820005109C9011F910F91FF90EF900895DF9238
:10083000EF92FF920F931F93FC01E480F5800681F5
:100840001781D1808081823048F480E090E0A0E17F
:10085000B0E0E82AF92A0A2B1B2BA5C0843009F442
:100860009FC0823021F4EE24FF24870105C0E114EB
:10087000F1040105110519F4E0E0F0E096C0628191
:1008800073819FEF623879070CF05BC022E83FEF7D
:10089000261B370B2A3131052CF020E030E040E0F8
:1008A00050E02AC0B801A701022E04C076956795D2
:1008B000579547950A94D2F781E090E0A0E0B0E028
:1008C00004C0880F991FAA1FBB1F2A95D2F7019752
:1008D000A109B1098E219F21A023B1230097A10571
:1008E000B10521F081E090E0A0E0B0E09A01AB0119
:1008F000282B392B4A2B5B2BDA01C9018F7790709B
:10090000A070B07080349105A105B10539F427FFBE
:1009100009C0205C3F4F4F4F5F4F04C0215C3F4FE9
:100920004F4F5F4FE0E0F0E02030A0E03A07A0E05A
:100930004A07A0E45A0710F0E1E0F0E079018A01EB
:1009400027C06038710564F5FB01E158FF4FD801FD
:10095000C7018F779070A070B07080349105A105A9
:10096000B10539F4E7FE0DC080E490E0A0E0B0E00E
:1009700004C08FE390E0A0E0B0E0E80EF91E0A1F8B
:100980001B1F17FF05C016950795F794E79431963E
:1009900087E016950795F794E7948A95D1F705C0F7
:1009A000EE24FF248701EFEFF0E06E2F67956627B6
:1009B0006795902F9F77D794DD24D7948E2F8695B7
:1009C000492F462B582F5D29B701CA011F910F915E
:1009D000FF90EF90DF900895FC01DB014081518191
:1009E0002281622F6F7770E0221F2227221F9381BE
:1009F000892F880F822B282F30E0991F9927991F64
:100A000011969C93119721153105A9F541155105B2
:100A10006105710511F482E037C082E89FEF1396FB
:100A20009C938E9312979A01AB0167E0220F331FBC
:100A3000441F551F6A95D1F783E08C930DC0220F98
:100A4000331F441F551F12968D919C911397019748
:100A500013969C938E931297203080E0380780E0A5
:100A6000480780E4580758F314962D933D934D930F
:100A70005C93179708952F3F310579F4411551057F
:100A80006105710519F484E08C93089564FF03C037
:100A900081E08C9312C01C9210C02F5730401396E7
:100AA0003C932E93129783E08C9387E0440F551F5D
:100AB000661F771F8A95D1F7706414964D935D93E6
:100AC0006D937C93179708951F93DC01FB019C9114
:100AD000923008F447C08081823008F443C09430DB
:100AE00051F411961C91843099F58181682F70E042
:100AF000611B71093FC0843021F0923031F48230A3
:100B0000B9F18181882389F12DC011961C9111972B
:100B10008230F1F081811817D9F412962D913C9111
:100B20001397828193818217930794F028173907CE
:100B3000BCF014968D919D910D90BC91A02D2481B7
:100B4000358146815781281739074A075B0718F412
:100B5000112341F00AC082179307A407B50740F498
:100B6000112319F061E070E005C06FEF7FEF02C064
:100B700060E070E0CB011F910895DF93CF930F9257
:100B8000CDB7DEB7EAE3F0E089E08083E7E3F0E0A9
:100B90001082E4E3F0E01082E1E3F0E010820F90D5
:100BA000CF91DF910895DF93CF9300D000D00F92C3
:100BB000CDB7DEB789836A838981282F30E03C83F3
:100BC0002B838B819C8181309105D1F02B813C81DD
:100BD000223031052CF48B819C81009761F01EC07E
:100BE0002B813C812230310581F08B819C818330C7
:100BF000910581F013C0EAE3F0E08A8180830EC0A2
:100C0000E7E3F0E08A81808309C0E4E3F0E08A81D1
:100C1000808304C0E1E3F0E08A8180830F900F902D
:100C20000F900F900F90CF91DF910895DF93CF93A6
:100C300000D000D00F92CDB7DEB789836A83898157
:100C4000282F30E03C832B838B819C818130910560
:100C5000D1F02B813C81223031052CF48B819C8199
:100C6000009761F01EC02B813C812230310581F05C
:100C70008B819C818330910581F013C0EBE3F0E020
:100C80008A8180830EC0E8E3F0E08A81808309C016
:100C9000E5E3F0E08A81808304C0E2E3F0E08A814A
:100CA00080830F900F900F900F900F90CF91DF9156
:100CB0000895DF93CF9300D000D0CDB7DEB78983FE
:100CC0008981282F30E03B832A838A819B81813070
:100CD0009105E9F02A813B81223031052CF48A818B
:100CE0009B81009761F02AC02A813B812230310527
:100CF000B1F08A819B8183309105C9F01FC0ABE3BD
:100D0000B0E0EBE3F0E0808180958C9317C0A8E31E
:100D1000B0E0E8E3F0E0808180958C930FC0A5E31C
:100D2000B0E0E5E3F0E0808180958C9307C0A2E31A
:100D3000B0E0E2E3F0E0808180958C930F900F901B
:100D40000F900F90CF91DF910895DF93CF9300D054
:100D500000D000D0CDB7DEB789836A834B838A8108
:100D6000883008F0CAC08B81823008F0C6C0898103
:100D7000282F30E03D832C836C817D8161307105AB
:100D800009F441C08C819D818230910534F42C811D
:100D90003D812115310571F0B0C06C817D816230DB
:100DA000710509F459C08C819D818330910509F446
:100DB0007CC0A3C0AAE3B0E0EAE3F0E08081482F62
:100DC0008A81282F30E081E090E002C0880F991FCF
:100DD0002A95E2F7809584238C93AAE3B0E0EAE3B6
:100DE000F0E08081482F8B81282F30E08A81882F86
:100DF00090E0B90102C0660F771F8A95E2F7CB0138
:100E0000842B8C937AC0A7E3B0E0E7E3F0E0808125
:100E1000482F8A81282F30E081E090E002C0880FBF
:100E2000991F2A95E2F7809584238C93A7E3B0E07D
:100E3000E7E3F0E08081482F8B81282F30E08A8122
:100E4000882F90E0B90102C0660F771F8A95E2F7FC
:100E5000CB01842B8C9351C0A4E3B0E0E4E3F0E039
:100E60008081482F8A81282F30E081E090E002C005
:100E7000880F991F2A95E2F7809584238C93A4E329
:100E8000B0E0E4E3F0E08081482F8B81282F30E050
:100E90008A81882F90E0B90102C0660F771F8A957A
:100EA000E2F7CB01842B8C9328C0A1E3B0E0E1E30F
:100EB000F0E08081482F8A81282F30E081E090E0A7
:100EC00002C0880F991F2A95E2F7809584238C939E
:100ED000A1E3B0E0E1E3F0E08081482F8B81282F8F
:100EE00030E08A81882F90E0B90102C0660F771F39
:100EF0008A95E2F7CB01842B8C9326960FB6F89453
:100F0000DEBF0FBECDBFCF91DF910895DF93CF93AA
:100F100000D000D000D0CDB7DEB789836A834B8381
:100F20008A81883008F0CAC08B81823008F0C6C040
:100F30008981282F30E03D832C836C817D81613055
:100F4000710509F441C08C819D818230910534F492
:100F50002C813D812115310571F0B0C06C817D81FE
:100F60006230710509F459C08C819D8183309105EF
:100F700009F47CC0A3C0ABE3B0E0EBE3F0E0808118
:100F8000482F8A81282F30E081E090E002C0880F4E
:100F9000991F2A95E2F7809584238C93ABE3B0E008
:100FA000EBE3F0E08081482F8B81282F30E08A81AD
:100FB000882F90E0B90102C0660F771F8A95E2F78B
:100FC000CB01842B8C937AC0A8E3B0E0E8E3F0E097
:100FD0008081482F8A81282F30E081E090E002C094
:100FE000880F991F2A95E2F7809584238C93A8E3B4
:100FF000B0E0E8E3F0E08081482F8B81282F30E0DB
:101000008A81882F90E0B90102C0660F771F8A9508
:10101000E2F7CB01842B8C9351C0A5E3B0E0E5E36C
:10102000F0E08081482F8A81282F30E081E090E035
:1010300002C0880F991F2A95E2F7809584238C932C
:10104000A5E3B0E0E5E3F0E08081482F8B81282F15
:1010500030E08A81882F90E0B90102C0660F771FC7
:101060008A95E2F7CB01842B8C9328C0A2E3B0E0F1
:10107000E2E3F0E08081482F8A81282F30E081E090
:1010800090E002C0880F991F2A95E2F7809584238B
:101090008C93A2E3B0E0E2E3F0E08081482F8B8103
:1010A000282F30E08A81882F90E0B90102C0660FB6
:1010B000771F8A95E2F7CB01842B8C9326960FB687
:1010C000F894DEBF0FBECDBFCF91DF910895DF93BF
:1010D000CF9300D000D00F92CDB7DEB789836A835B
:1010E0008981282F30E03C832B838B819C81813048
:1010F000910549F12B813C81223031052CF48B8103
:101100009C81009761F04BC02B813C8122303105DE
:1011100049F18B819C818330910599F140C0ABE30B
:10112000B0E0EBE3F0E08081482F8A81282F30E0A7
:1011300081E090E0022E02C0880F991F0A94E2F726
:1011400084278C932CC0E8E3F0E08A81282F30E0DC
:1011500081E090E0022E02C0880F991F0A94E2F706
:1011600080831DC0E5E3F0E08A81282F30E081E034
:1011700090E0022E02C0880F991F0A94E2F7808344
:101180000EC0E2E3F0E08A81282F30E081E090E0B9
:10119000022E02C0880F991F0A94E2F780830F90F5
:1011A0000F900F900F900F90CF91DF910895DF93E4
:1011B000CF9300D000D000D0CDB7DEB789837B833A
:1011C0006A838981282F30E03D832C838C819D8127
:1011D00081309105E1F02C813D81223031052CF4E4
:1011E0008C819D81009761F026C02C813D81223049
:1011F0003105A1F08C819D8183309105B1F01BC038
:10120000E9E3F0E08081EA81FB81808314C0E6E3BA
:10121000F0E08081EA81FB8180830DC0E3E3F0E0B0
:101220008081EA81FB81808306C0E0E3F0E0808179
:10123000EA81FB81808326960FB6F894DEBF0FBE4D
:10124000CDBFCF91DF910895DF93CF93CDB7DEB7B8
:1012500027970FB6F894DEBF0FBECDBF89836A8390
:101260005C834B838981282F30E03E832D834D8121
:101270005E814130510559F18D819E818230910509
:1012800034F42D813E812115310569F05BC04D811B
:101290005E814230510579F18D819E8183309105C7
:1012A00009F43DC04FC0E9E3F0E08081282F30E031
:1012B0008A81882F90E0A90102C0559547958A95AB
:1012C000E2F7CA018170EB81FC8180833BC0E6E3D9
:1012D000F0E08081282F30E08A81882F90E0A901FA
:1012E00002C0559547958A95E2F7CA018170EB8156
:1012F000FC81808327C0E3E3F0E08081282F30E089
:101300008A81882F90E0A90102C0559547958A955A
:10131000E2F7CA018170EB81FC81808313C0E0E3B6
:10132000F0E08081282F30E08A81882F90E0A901A9
:1013300002C0559547958A95E2F7CA018170EB8105
:10134000FC81808327960FB6F894DEBF0FBECDBF19
:10135000CF91DF910895DF93CF9300D00F92CDB757
:10136000DEB7E7E2F0E08081E7E2F0E01082E7E25A
:10137000F0E08081E7E2F0E01082A7E2B0E0E7E28F
:10138000F0E0808180628C93A6E2B0E0E6E2F0E0DB
:10139000808180628C93A6E2B0E0E6E2F0E080819A
:1013A000887F8C93A6E2B0E0E6E2F0E08081846082
:1013B0008C93A6E2B0E0E6E2F0E0808180688C9356
:1013C0000F900F900F90CF91DF910895DF93CF93FF
:1013D00000D00F92CDB7DEB79A838983E4E2F0E0C4
:1013E0008081882F90E000249695879507949695A4
:1013F00087950794982F802DE981FA8191838083C6
:10140000E981FA8120813181E5E2F0E08081882F55
:1014100090E0880F991F880F991F822B932BE981E9
:10142000FA81918380830F900F900F90CF91DF917D
:101430000895DF93CF930F92CDB7DEB7E6E2F0E0E9
:10144000808182958F70882F90E0817090700097D6
:10145000A9F3A6E2B0E0E6E2F0E0808180618C933F
:101460000F90CF91DF910895DF93CF930F92CDB777
:10147000DEB7A6E2B0E0E6E2F0E0808180688C931F
:101480000F90CF91DF910895DF93CF930F92CDB757
:10149000DEB7A6E2B0E0E6E2F0E080818F778C93E1
:1014A0000F90CF91DF910895DF93CF9300D0CDB708
:1014B000DEB789830F900F90CF91DF910895DF936E
:1014C000CF930F92CDB7DEB7A6E2B0E0E6E2F0E050
:1014D000808180628C930F90CF91DF910895DF938C
:1014E000CF9300D0CDB7DEB789838981813041F4B5
:1014F000A0E5B0E0E0E5F0E0808180628C9364C01C
:101500008981823041F4A0E5B0E0E0E5F0E080813F
:1015100080648C9359C08981833079F4A0E5B0E070
:10152000E0E5F0E0808180628C93A0E5B0E0E0E54A
:10153000F0E0808180648C9347C08981843041F4DD
:10154000A0E5B0E0E0E5F0E0808180688C933CC0ED
:101550008981853079F4A0E5B0E0E0E5F0E08081B4
:1015600080628C93A0E5B0E0E0E5F0E080818068E7
:101570008C932AC08981863079F4A0E5B0E0E0E55B
:10158000F0E0808180648C93A0E5B0E0E0E5F0E0DD
:10159000808180688C9318C089818730A9F4A0E588
:1015A000B0E0E0E5F0E0808180628C93A0E5B0E0FF
:1015B000E0E5F0E0808180648C93A0E5B0E0E0E5B8
:1015C000F0E0808180688C930F900F90CF91DF9135
:1015D0000895DF93CF9300D0CDB7DEB7E6E2F0E019
:1015E0008081E6E2F0E010820F900F90CF91DF91C2
:1015F0000895DF93CF930F92CDB7DEB7A6E2B0E0A8
:10160000E6E2F0E0808188608C930F90CF91DF91CB
:101610000895DF93CF930F92CDB7DEB7A6E2B0E087
:10162000E6E2F0E08081877F8C930F90CF91DF918D
:101630000895DF93CF9300D00F92CDB7DEB79A8392
:101640008983E5E2F0E08081E981FA8180830F906F
:101650000F900F90CF91DF910895DF93CF930F926A
:10166000CDB7DEB7A6E2B0E0E6E2F0E080818064CC
:101670008C930F90CF91DF910895DF93CF9300D09B
:1016800000D00F92CDB7DEB79A8389837C836B83BA
:1016900089819A8190936901809368018B819C81F3
:1016A00090936B0180936A010F900F900F900F90B1
:1016B0000F90CF91DF9108951F920F920FB60F9266
:1016C00011242F933F934F935F936F937F938F9347
:1016D0009F93AF93BF93EF93FF93DF93CF93CDB7D8
:1016E000DEB780916A0190916B01009779F080914B
:1016F000680190916901009749F0E0916801F091CB
:10170000690180916A0190916B010995CF91DF91F8
:10171000FF91EF91BF91AF919F918F917F916F91C9
:101720005F914F913F912F910F900FBE0F901F909F
:101730001895DF93CF930F92CDB7DEB70E94AB0918
:1017400080E00E94540A0E945F0A80E00E946F0AB3
:1017500080E062E040E00E94A5060E942D0B0F9001
:10176000CF91DF910895DF93CF9300D000D0CDB714
:10177000DEB79B838A830E94190A1982CE010196E3
:101780000E94190B8981282F30E08EEE92E0AC0187
:10179000249FC001259F900D349F900D1124CC01F2
:1017A000A0E0B0E0BC01CD010E944F03DC01CB0101
:1017B000BC01CD0120E030ED4FEB54E40E941F024C
:1017C000DC01CB01BC01CD010E944900DC01CB0151
:1017D000EA81FB81918380830F900F900F900F908F
:1017E000CF91DF910895DF93CF9300D0CDB7DEB7CF
:1017F0000E94990BCE0101960E94B30B89819A81B8
:10180000982F83E0692F0E94D30589819A81892FBF
:101810009927982F82E0692F0E94D305EBCF2F9252
:101820003F924F925F926F927F928F929F92AF9270
:10183000BF92CF92DF92EF92FF920F931F93CF93BD
:10184000DF93CDB7DEB7CA1BDB0B0FB6F894DEBF54
:101850000FBECDBF09942A88398848885F846E847A
:101860007D848C849B84AA84B984C884DF80EE80C4
:10187000FD800C811B81AA81B981CE0FD11D0FB6CD
:10188000F894DEBF0FBECDBFED010895F894FFCFF1
:101890000000000000000000000102020303030337
:1018A00004040404040404040505050505050505F0
:1018B00005050505050505050606060606060606D0
:1018C00006060606060606060606060606060606B8
:1018D00006060606060606060707070707070707A0
:1018E0000707070707070707070707070707070788
:1018F0000707070707070707070707070707070778
:101900000707070707070707070707070707070767
:10191000070707070707070708080808080808084F
:101920000808080808080808080808080808080837
:101930000808080808080808080808080808080827
:101940000808080808080808080808080808080817
:101950000808080808080808080808080808080807
:1019600008080808080808080808080808080808F7
:1019700008080808080808080808080808080808E7
:1019800008080808080808080808080808080808D7
:0819900008080808080808080F
:00000001FF
