:100000000C942A000C9447000C9447000C94470071
:100010000C9447000C9447000C9447000C94470044
:100020000C9447000C9447000C9447000C945D0D11
:100030000C9447000C9447000C9447000C94470024
:100040000C9447000C9447000C9447000C94470014
:100050000C94470011241FBECFE5D8E0DEBFCDBF12
:1000600011E0A8E6B1E001C01D92AD36B107E1F79D
:1000700011E0A0E6B0E0EEECFCE102C005900D92CC
:10008000A836B107D9F70E94EA0A0C94650E0C94C1
:100090000000EF92FF920F931F937B018C0120E0F1
:1000A00030E040E05FE40E94F50388238CF0C80153
:1000B000B70120E030E040E05FE40E94C1010E940F
:1000C000B3049B01AC01205030404040504806C072
:1000D000C801B7010E94B3049B01AC01B901CA0178
:1000E0001F910F91FF90EF900895A0E0B0E0EBE733
:1000F000F0E00C94B20DDC012B01FA019C919230DE
:1001000008F439C1EB018881823008F433C194309E
:1001100069F4843009F02FC111969C91119789815F
:10012000981709F428C1A0E6B0E025C1843009F48D
:1001300021C18230A9F4923009F01DC19A01AD01AC
:1001400088E0EA010990AE01E90109929E0181501F
:10015000C1F7E201898111969C918923818308C1AD
:10016000923009F407C112962D903C901397EB0141
:100170008A819B811496AD90BD90CD90DC901797AD
:10018000EC80FD800E811F819101281B390BB90184
:1001900037FF04C066277727621B730B6032710537
:1001A0000CF061C0121613066CF537014801062EDB
:1001B00004C096948794779467940A94D2F721E0C8
:1001C00030E040E050E004C0220F331F441F551FB1
:1001D0006A95D2F721503040404050402E213F21B7
:1001E00040235123211531054105510521F021E01E
:1001F00030E040E050E079018A01E628F72808293C
:1002000019293CC0232BD1F1260E371E350146019A
:10021000062E04C096948794779467940A94D2F734
:1002200021E030E040E050E004C0220F331F441FC3
:10023000551F6A95D2F721503040404050402A2146
:100240003B214C215D21211531054105510521F04E
:1002500021E030E040E050E059016A01A628B728CB
:10026000C828D9280BC0821593052CF01C01AA249C
:10027000BB24650103C0EE24FF24870111969C91E5
:10028000D20111968C91981709F445C0992339F041
:10029000A80197012A193B094C095D0906C0A6016E
:1002A00095012E193F09400B510B57FD08C01182D3
:1002B0003382228224833583468357831DC081E0A5
:1002C00081833382228288279927DC01821B930B4A
:1002D000A40BB50B84839583A683B7830DC0220F2F
:1002E000331F441F551F24833583468357838281E0
:1002F000938101979383828324813581468157813D
:10030000DA01C9010197A109B1098F5F9F4FAF4F72
:10031000BF4328F30BC0918333822282EA0CFB1C7B
:100320000C1D1D1DE482F5820683178383E0808304
:10033000248135814681578157FF1AC0C901AA27F8
:1003400097FDA095BA2F81709070A070B0705695EF
:10035000479537952795822B932BA42BB52B848318
:100360009583A683B7838281938101969383828349
:10037000DF0101C0D201CD01CDB7DEB7E2E10C94BF
:10038000CE0DA0E2B0E0E7ECF1E00C94BE0D698385
:100390007A838B839C832D833E834F835887E9E048
:1003A000EE2EF12CEC0EFD1ECE010196B7010E943F
:1003B0002B068E010F5E1F4FCE010596B8010E94DD
:1003C0002B068A8991E089278A8BC701B801AE0183
:1003D000475E5F4F0E9475000E945605A096E6E0BA
:1003E0000C94DA0DA0E2B0E0E8EFF1E00C94BE0D61
:1003F00069837A838B839C832D833E834F835887C5
:10040000F9E0EF2EF12CEC0EFD1ECE010196B701A6
:100410000E942B068E010F5E1F4FCE010596B8017C
:100420000E942B06C701B801AE01475E5F4F0E94D4
:1004300075000E945605A096E6E00C94DA0DA0E245
:10044000B0E0E5E2F2E00C94B20D69837A838B832D
:100450009C832D833E834F835887CE010196BE0136
:10046000675F7F4F0E942B06CE010596BE016F5E2F
:100470007F4F0E942B069985923088F089898230BF
:10048000C8F0943019F4823051F404C0843029F457
:10049000923081F480E690E0C6C0923049F420E0CA
:1004A0009A858A89981321E02A87CE010996BBC0D4
:1004B000823049F420E09A858A89981321E02A8BBA
:1004C000CE014196B0C02D843E844F8458886D88FB
:1004D0007E888F88988CEE24FF248701AA24BB2471
:1004E000650140E050E060E070E0E0E0F0E0C10174
:1004F00081709070892BE9F0E60CF71C081D191D1E
:100500009A01AB012A0D3B1D4C1D5D1D80E090E062
:10051000A0E0B0E0E614F7040805190520F481E036
:1005200090E0A0E0B0E0BA01A901480F591F6A1F8E
:100530007B1FAA0CBB1CCC1CDD1C97FE08C081E0F5
:1005400090E0A0E0B0E0A82AB92ACA2ADB2A3196B6
:10055000E032F10549F0660C771C881C991C569412
:10056000479437942794C3CFFA85EA892B893C892D
:100570008B859C85280F391F2E5F3F4F17C0CA01FE
:1005800081709070892B61F016950795F794E79428
:1005900080E090E0A0E0B0E8E82AF92A0A2B1B2BC3
:1005A00076956795579547952F5F3F4F77FDE7CF36
:1005B0000CC0440F551F661F771F17FD4160EE0CDE
:1005C000FF1C001F111F21503040403090E05907A0
:1005D00090E0690790E4790760F32B8F3C8FDB0193
:1005E000CA018F779070A070B07080349105A1051A
:1005F000B10561F447FD0AC0E114F10401051105DC
:1006000029F0405C5F4F6F4F7F4F40781A8EFE1786
:1006100011F081E08A8F4D8F5E8F6F8F78A383E01A
:10062000898FCE0149960E945605A096E2E10C946E
:10063000CE0DA8E1B0E0EFE1F3E00C94BA0D6983D0
:100640007A838B839C832D833E834F835887B9E0C5
:10065000EB2EF12CEC0EFD1ECE010196B7010E948F
:100660002B068E010F5E1F4FCE010596B8010E942A
:100670002B062985223008F47EC03989323010F4E7
:10068000B8017CC08A859A8989278A87243011F02D
:10069000223031F4231709F06EC060E670E06EC0BE
:1006A000343039F41D861E861F86188A1C861B86E8
:1006B00004C0323021F484E08987B7015FC02B8504
:1006C0003C858B899C89281B390B3C872B87ED84C3
:1006D000FE840F851889AD88BE88CF88D88CEA142F
:1006E000FB040C051D0540F4EE0CFF1C001F111F40
:1006F000215030403C872B8720E030E040E050E044
:1007000080E090E0A0E0B0E460E070E0EA14FB0478
:100710000C051D0540F0282B392B4A2B5B2BEA18C2
:10072000FB080C091D09B695A79597958795EE0CC2
:10073000FF1C001F111F6F5F7F4F6F31710531F775
:10074000DA01C9018F779070A070B0708034910584
:10075000A105B10561F427FD0AC0E114F10401050A
:10076000110529F0205C3F4F4F4F5F4F20782D87B8
:100770003E874F87588BBE01675F7F4FCB010E943A
:1007800056056896EAE00C94D60DA8E1B0E0EBECD3
:10079000F3E00C94BE0D69837A838B839C832D8355
:1007A0003E834F83588789E0E82EF12CEC0EFD1E26
:1007B000CE010196B7010E942B068E010F5E1F4FDE
:1007C000CE010596B8010E942B068985823040F043
:1007D0008989823028F0C701B8010E94A30601C0B0
:1007E0008FEF6896E6E00C94DA0DA8E1B0E0EBEF4D
:1007F000F3E00C94BE0D69837A838B839C832D83F5
:100800003E834F83588789E0E82EF12CEC0EFD1EC5
:10081000CE010196B7010E942B068E010F5E1F4F7D
:10082000CE010596B8010E942B068985823040F0E2
:100830008989823028F0C701B8010E94A30601C04F
:100840008FEF6896E6E00C94DA0DA8E1B0E0EBE2F9
:10085000F4E00C94BE0D69837A838B839C832D8393
:100860003E834F83588789E0E82EF12CEC0EFD1E65
:10087000CE010196B7010E942B068E010F5E1F4F1D
:10088000CE010596B8010E942B068985823040F082
:100890008989823028F0C701B8010E94A30601C0EF
:1008A00081E06896E6E00C94DA0DA8E0B0E0EBE5B4
:1008B000F4E00C94BB0D9B01AC0183E08983DA0169
:1008C000C9018827B7FD83959927AA27BB27B82E8A
:1008D000211531054105510519F482E089833AC09B
:1008E0008823A9F0203080E0380780E0480780E8BE
:1008F000580729F460E070E080E09FEC30C0EE24FF
:10090000FF248701E21AF30A040B150B02C07901D8
:100910008A018EE1C82ED12CDC82CB82ED82FE8250
:100920000F831887C801B7010E94070501971816A1
:10093000190684F4082E04C0EE0CFF1C001F111FC2
:100940000A94D2F7ED82FE820F831887C81AD90A5B
:10095000DC82CB82BA82CE0101960E94560528968F
:10096000E9E00C94D70DACE0B0E0E9EBF4E00C94D6
:10097000C20D69837A838B839C83CE010196BE016D
:100980006B5F7F4F0E942B068D81823061F1823038
:1009900050F1843021F48E81882351F12EC02F81B3
:1009A000388537FD20C06E812F3131051CF066235C
:1009B000F9F023C08EE190E0821B930B29853A85E4
:1009C0004B855C8504C056954795379527958A9544
:1009D000D2F76623B1F050954095309521953F4F61
:1009E0004F4F5F4F0EC020E030E040E050E009C0C4
:1009F0002FEF3FEF4FEF5FE704C020E030E040E033
:100A000050E8B901CA012C96E2E00C94DE0DEF9299
:100A1000FF920F931F937B018C0180E0E81680E02A
:100A2000F80681E0080780E0180788F48FEFE816E1
:100A3000F1040105110531F028F088E090E0A0E014
:100A4000B0E017C080E090E0A0E0B0E012C080E02D
:100A5000E81680E0F80680E0080781E0180728F033
:100A600088E190E0A0E0B0E004C080E190E0A0E088
:100A7000B0E020E230E040E050E0281B390B4A0BA8
:100A80005B0B04C016950795F794E7948A95D2F707
:100A9000F701E859FF4F8081281B310941095109AD
:100AA000C9011F910F91FF90EF900895DF92EF928F
:100AB000FF920F931F93FC01E480F580068117815C
:100AC000D1808081823048F480E090E0A0E1B0E005
:100AD000E82AF92A0A2B1B2BA5C0843009F49FC0F1
:100AE000823021F4EE24FF24870105C0E114F104D3
:100AF0000105110519F4E0E0F0E096C06281738110
:100B00009FEF623879070CF05BC022E83FEF261BAD
:100B1000370B2A3131052CF020E030E040E050E086
:100B20002AC0B801A701022E04C076956795579593
:100B300047950A94D2F781E090E0A0E0B0E004C0CD
:100B4000880F991FAA1FBB1F2A95D2F70197A109E9
:100B5000B1098E219F21A023B1230097A105B105E2
:100B600021F081E090E0A0E0B0E09A01AB01282BF9
:100B7000392B4A2B5B2BDA01C9018F779070A0705B
:100B8000B07080349105A105B10539F427FF09C083
:100B9000205C3F4F4F4F5F4F04C0215C3F4F4F4F92
:100BA0005F4FE0E0F0E02030A0E03A07A0E04A0725
:100BB000A0E45A0710F0E1E0F0E079018A0127C0D3
:100BC0006038710564F5FB01E158FF4FD801C7019A
:100BD0008F779070A070B07080349105A105B10539
:100BE00039F4E7FE0DC080E490E0A0E0B0E004C07E
:100BF0008FE390E0A0E0B0E0E80EF91E0A1F1B1F93
:100C000017FF05C016950795F794E794319687E08E
:100C100016950795F794E7948A95D1F705C0EE24C9
:100C2000FF248701EFEFF0E06E2F67956627679549
:100C3000902F9F77D794DD24D7948E2F8695492FB8
:100C4000462B582F5D29B701CA011F910F91FF90C4
:100C5000EF90DF900895FC01DB01408151812281FA
:100C6000622F6F7770E0221F2227221F9381892F26
:100C7000880F822B282F30E0991F9927991F1196F2
:100C80009C93119721153105A9F541155105610571
:100C9000710511F482E037C082E89FEF13969C93B0
:100CA0008E9312979A01AB0167E0220F331F441F06
:100CB000551F6A95D1F783E08C930DC0220F331F27
:100CC000441F551F12968D919C911397019713966F
:100CD0009C938E931297203080E0380780E048077D
:100CE00080E4580758F314962D933D934D935C93ED
:100CF000179708952F3F310579F441155105610586
:100D0000710519F484E08C93089564FF03C081E0B9
:100D10008C9312C01C9210C02F57304013963C93F6
:100D20002E93129783E08C9387E0440F551F661F24
:100D3000771F8A95D1F7706414964D935D936D93E8
:100D40007C93179708951F93DC01FB019C919230CF
:100D500008F447C08081823008F443C0943051F4D5
:100D600011961C91843099F58181682F70E0611B88
:100D700071093FC0843021F0923031F48230B9F1F2
:100D80008181882389F12DC011961C9111978230A1
:100D9000F1F081811817D9F412962D913C91139797
:100DA000828193818217930794F028173907BCF04A
:100DB00014968D919D910D90BC91A02D248135812B
:100DC00046815781281739074A075B0718F4112312
:100DD00041F00AC082179307A407B50740F4112316
:100DE00019F061E070E005C06FEF7FEF02C060E0D6
:100DF00070E0CB011F910895DF93CF930F92CDB791
:100E0000DEB7EAE3F0E089E08083E7E3F0E0108218
:100E1000E4E3F0E01082E1E3F0E010820F90CF9184
:100E2000DF910895DF93CF9300D000D00F92CDB71C
:100E3000DEB789836A838981282F30E03C832B8346
:100E40008B819C8181309105D1F02B813C812230B6
:100E500031052CF48B819C81009761F01EC02B81A1
:100E60003C812230310581F08B819C81833091055A
:100E700081F013C0EAE3F0E08A8180830EC0E7E3EB
:100E8000F0E08A81808309C0E4E3F0E08A81808316
:100E900004C0E1E3F0E08A8180830F900F900F900F
:100EA0000F900F90CF91DF910895DF93CF9300D0F3
:100EB00000D00F92CDB7DEB789836A838981282F4E
:100EC00030E03C832B838B819C8181309105D1F074
:100ED0002B813C81223031052CF48B819C81009741
:100EE00061F01EC02B813C812230310581F08B8165
:100EF0009C818330910581F013C0EBE3F0E08A819F
:100F000080830EC0E8E3F0E08A81808309C0E5E3D6
:100F1000F0E08A81808304C0E2E3F0E08A8180838C
:100F20000F900F900F900F900F90CF91DF91089539
:100F3000DF93CF9300D000D0CDB7DEB7898389810E
:100F4000282F30E03B832A838A819B818130910561
:100F5000E9F02A813B81223031052CF48A819B8182
:100F6000009761F02AC02A813B8122303105B1F01F
:100F70008A819B8183309105C9F01FC0ABE3B0E04B
:100F8000EBE3F0E0808180958C9317C0A8E3B0E09C
:100F9000E8E3F0E0808180958C930FC0A5E3B0E09A
:100FA000E5E3F0E0808180958C9307C0A2E3B0E098
:100FB000E2E3F0E0808180958C930F900F900F908A
:100FC0000F90CF91DF910895DF93CF9300D000D0A1
:100FD00000D0CDB7DEB789836A834B838A8188309E
:100FE00008F0CAC08B81823008F0C6C08981282FE2
:100FF00030E03D832C836C817D816130710509F483
:1010000041C08C819D818230910534F42C813D81D9
:101010002115310571F0B0C06C817D8162307105A0
:1010200009F459C08C819D818330910509F47CC0FD
:10103000A3C0AAE3B0E0EAE3F0E08081482F8A8110
:10104000282F30E081E090E002C0880F991F2A9598
:10105000E2F7809584238C93AAE3B0E0EAE3F0E022
:101060008081482F8B81282F30E08A81882F90E063
:10107000B90102C0660F771F8A95E2F7CB01842B76
:101080008C937AC0A7E3B0E0E7E3F0E08081482FDB
:101090008A81282F30E081E090E002C0880F991FFC
:1010A0002A95E2F7809584238C93A7E3B0E0E7E3E9
:1010B000F0E08081482F8B81282F30E08A81882FB3
:1010C00090E0B90102C0660F771F8A95E2F7CB0165
:1010D000842B8C9351C0A4E3B0E0E4E3F0E0808182
:1010E000482F8A81282F30E081E090E002C0880FED
:1010F000991F2A95E2F7809584238C93A4E3B0E0AE
:10110000E4E3F0E08081482F8B81282F30E08A8152
:10111000882F90E0B90102C0660F771F8A95E2F729
:10112000CB01842B8C9328C0A1E3B0E0E1E3F0E095
:101130008081482F8A81282F30E081E090E002C032
:10114000880F991F2A95E2F7809584238C93A1E359
:10115000B0E0E1E3F0E08081482F8B81282F30E080
:101160008A81882F90E0B90102C0660F771F8A95A7
:10117000E2F7CB01842B8C9326960FB6F894DEBF52
:101180000FBECDBFCF91DF910895DF93CF9300D0F5
:1011900000D000D0CDB7DEB789836A834B838A81C4
:1011A000883008F0CAC08B81823008F0C6C08981BF
:1011B000282F30E03D832C836C817D816130710567
:1011C00009F441C08C819D818230910534F42C81D9
:1011D0003D812115310571F0B0C06C817D81623097
:1011E000710509F459C08C819D818330910509F402
:1011F0007CC0A3C0ABE3B0E0EBE3F0E08081482F1C
:101200008A81282F30E081E090E002C0880F991F8A
:101210002A95E2F7809584238C93ABE3B0E0EBE36F
:10122000F0E08081482F8B81282F30E08A81882F41
:1012300090E0B90102C0660F771F8A95E2F7CB01F3
:10124000842B8C937AC0A8E3B0E0E8E3F0E08081DF
:10125000482F8A81282F30E081E090E002C0880F7B
:10126000991F2A95E2F7809584238C93A8E3B0E038
:10127000E8E3F0E08081482F8B81282F30E08A81DD
:10128000882F90E0B90102C0660F771F8A95E2F7B8
:10129000CB01842B8C9351C0A5E3B0E0E5E3F0E0F3
:1012A0008081482F8A81282F30E081E090E002C0C1
:1012B000880F991F2A95E2F7809584238C93A5E3E4
:1012C000B0E0E5E3F0E08081482F8B81282F30E00B
:1012D0008A81882F90E0B90102C0660F771F8A9536
:1012E000E2F7CB01842B8C9328C0A2E3B0E0E2E3C9
:1012F000F0E08081482F8A81282F30E081E090E063
:1013000002C0880F991F2A95E2F7809584238C9359
:10131000A2E3B0E0E2E3F0E08081482F8B81282F48
:1013200030E08A81882F90E0B90102C0660F771FF4
:101330008A95E2F7CB01842B8C9326960FB6F8940E
:10134000DEBF0FBECDBFCF91DF910895DF93CF9366
:1013500000D000D00F92CDB7DEB789836A83898130
:10136000282F30E03C832B838B819C818130910539
:1013700049F12B813C81223031052CF48B819C81F9
:10138000009761F04BC02B813C812230310549F13F
:101390008B819C818330910599F140C0ABE3B0E033
:1013A000EBE3F0E08081482F8A81282F30E081E054
:1013B00090E0022E02C0880F991F0A94E2F784275A
:1013C0008C932CC0E8E3F0E08A81282F30E081E0A4
:1013D00090E0022E02C0880F991F0A94E2F78083E2
:1013E0001DC0E5E3F0E08A81282F30E081E090E045
:1013F000022E02C0880F991F0A94E2F780830EC064
:10140000E2E3F0E08A81282F30E081E090E0022ED4
:1014100002C0880F991F0A94E2F780830F900F9003
:101420000F900F900F90CF91DF910895DF93CF939E
:1014300000D000D000D0CDB7DEB789837B836A832C
:101440008981282F30E03D832C838C819D818130E0
:101450009105E1F02C813D81223031052CF48C8105
:101460009D81009761F026C02C813D81223031059D
:10147000A1F08C819D8183309105B1F01BC0E9E31F
:10148000F0E08081EA81FB81808314C0E6E3F0E034
:101490008081EA81FB8180830DC0E3E3F0E08081FD
:1014A000EA81FB81808306C0E0E3F0E08081EA818D
:1014B000FB81808326960FB6F894DEBF0FBECDBFAA
:1014C000CF91DF910895DF93CF93CDB7DEB7279704
:1014D0000FB6F894DEBF0FBECDBF89836A835C83ED
:1014E0004B838981282F30E03E832D834D815E819F
:1014F0004130510559F18D819E818230910534F43E
:101500002D813E812115310569F05BC04D815E81E1
:101510004230510579F18D819E818330910509F426
:101520003DC04FC0E9E3F0E08081282F30E08A81A0
:10153000882F90E0A90102C0559547958A95E2F75A
:10154000CA018170EB81FC8180833BC0E6E3F0E05F
:101550008081282F30E08A81882F90E0A90102C085
:10156000559547958A95E2F7CA018170EB81FC8118
:10157000808327C0E3E3F0E08081282F30E08A8178
:10158000882F90E0A90102C0559547958A95E2F70A
:10159000CA018170EB81FC81808313C0E0E3F0E03D
:1015A0008081282F30E08A81882F90E0A90102C035
:1015B000559547958A95E2F7CA018170EB81FC81C8
:1015C000808327960FB6F894DEBF0FBECDBFCF91B4
:1015D000DF910895DF93CF93CDB7DEB760970FB655
:1015E000F894DEBF0FBECDBF0E94800B81E063E0A8
:1015F00041E00E94E407188A1F867AC08F85988987
:101600004E96988B8F878F850E94D00B80E090E854
:10161000ABE3B5E48B879C87AD87BE876B857C8504
:101620008D859E8520E030E04AEF54E40E941F0241
:10163000DC01CB018F839887A987BA876F81788572
:1016400089859A8520E030E040E85FE30E94250428
:1016500088232CF481E090E09E838D833FC06F81CE
:10166000788589859A8520E03FEF4FE757E40E940F
:10167000C50318164CF56B857C858D859E8520E00D
:1016800030E040E251E40E941F02DC01CB01BC01CA
:10169000CD010E944900DC01CB019E838D830FC0E8
:1016A00088EC90E09C838B838B819C810197F1F780
:1016B0009C838B838D819E8101979E838D838D81F9
:1016C0009E81009769F714C06F81788589859A8516
:1016D0000E944900DC01CB019E838D838D819E8118
:1016E0009A83898389819A810197F1F79A83898303
:1016F0008F8598898F3F910509F00CF47FCF7BCFC0
:10170000DF93CF93CDB7DEB7A3E5B0E0E3E5F0E03C
:10171000808182608C93A3E5B0E0E3E5F0E0808116
:1017200080648C93A3E5B0E0E3E5F0E0808188601D
:101730008C93A3E5B0E0E3E5F0E0808180628C93D8
:1017400081E0CF91DF910895DF93CF9300D0CDB7A3
:10175000DEB78983E2E5F0E0898180830F900F9006
:10176000CF91DF910895DF93CF9300D0CDB7DEB74F
:101770008983ECE5F0E0898180830F900F90CF9111
:10178000DF910895DF93CF9300D00F92CDB7DEB7EE
:101790009A8389830F900F900F90CF91DF910895D6
:1017A000DF93CF9300D000D0CDB7DEB79B838A8381
:1017B0008A819B81AA2797FDA095BA2FBC01CD01F4
:1017C0000E945504DC01CB01BC01CD0120E030E0DA
:1017D00048EC52E40E941903DC01CB01BC01CD01AD
:1017E00020E030E040E853E40E941F02DC01CB011E
:1017F000BC01CD010E944900DC01CB018983ECE5ED
:10180000F0E0898181508983898180830F900F90D6
:101810000F900F90CF91DF910895EF92FF920F9369
:101820001F93DF93CF93CDB7DEB761970FB6F894D0
:10183000DEBF0FBECDBF988B8F878FE692E1A3E806
:10184000B9E38B879C87AD87BE876B857C858D854B
:101850009E8520E030E040E853E40E941F02DC0156
:10186000CB018F839887A987BA878F859889AA2704
:1018700097FDA095BA2FBC01CD010E945504DC0153
:10188000CB01BC01CD012F81388549855A850E9445
:1018900025048823A4F581E08E838F859889AA2763
:1018A00097FDA095BA2FBC01CD010E945504DC0123
:1018B000CB01BC01CD012F81388549855A850E9415
:1018C0001903DC01CB01BC01CD0120E030E040E890
:1018D00053EC0E941F02DC01CB01BC01CD0120E0D2
:1018E00030E040E853E40E94F201DC01CB01BC018E
:1018F000CD010E944900DC01CB018D839CC06F812A
:10190000788589859A850E94B304DC01CB019C010E
:101910008F8598892817390721F481E08E831D82ED
:101920008AC08F859889AA2797FDA095BA2FBC01F8
:10193000CD010E945504DC01CB01BC01CD012F81FA
:10194000388549855A850E941903DC01CB01BC0109
:10195000CD010E94E90DDC01CB01BC01CD010E944B
:101960004900DC01CB018E838F859889AA2797FDDA
:10197000A095BA2FBC01CD010E945504DC01CB011A
:10198000BC01CD012F81388549855A850E941903F4
:10199000DC01CB017C018D018F859889AA2797FDF9
:1019A000A095BA2FBC01CD010E945504DC01CB01EA
:1019B000BC01CD010E94B304DC01CB01AA2797FD35
:1019C000A095BA2FBC01CD010E945504DC01CB01CA
:1019D000BC01CD012F81388549855A850E941903A4
:1019E000DC01CB019C01AD01C801B7010E94C1011E
:1019F000DC01CB0189839A83AB83BC8369817A81C3
:101A00008B819C8120E030E040E853EC0E941F0273
:101A1000DC01CB01BC01CD0120E030E040E853E423
:101A20000E94F201DC01CB01BC01CD010E94490002
:101A3000DC01CB018D83E2E5F0E01082E2E5F0E02D
:101A40008D81808313C0E8E5F0E08081882F90E0ED
:101A5000817090700097B9F38E8181508E83A8E5D4
:101A6000B0E0E8E5F0E0808181608C938E8188238E
:101A700051F761960FB6F894DEBF0FBECDBFCF9180
:101A8000DF911F910F91FF90EF900895DF93CF9317
:101A90000F92CDB7DEB7A9E5B0E0E9E5F0E08081CF
:101AA00081608C93A9E5B0E0E9E5F0E080818D7F6D
:101AB0008C930F90CF91DF9108951F920F920FB6E4
:101AC0000F9211242F933F934F935F938F939F9384
:101AD000AF93BF93EF93FF93DF93CF93CDB7DEB771
:101AE0008091690190916A01A0916B01B0916C01A4
:101AF0000196A11DB11D8093690190936A01A09385
:101B00006B01B0936C0180916801282F30E040E0B8
:101B100050E08091690190916A01A0916B01B091B0
:101B20006C01281739074A075B0759F4E3E5F0E031
:101B300010821092690110926A0110926B0110924A
:101B40006C01CF91DF91FF91EF91BF91AF919F9188
:101B50008F915F914F913F912F910F900FBE0F90FA
:101B60001F9018952F923F924F925F926F927F92A3
:101B70008F929F92AF92BF92CF92DF92EF92FF929D
:101B80000F931F93CF93DF93CDB7DEB7CA1BDB0B49
:101B90000FB6F894DEBF0FBECDBF09942A883988EE
:101BA00048885F846E847D848C849B84AA84B984F5
:101BB000C884DF80EE80FD800C811B81AA81B98101
:101BC000CE0FD11D0FB6F894DEBF0FBECDBFED0115
:101BD00008953BD080F09F3740F491110EF44DC032
:101BE00060E070E080E89FE3089526F01B16611D19
:101BF000711D811D01C01BC0882371F4772321F062
:101C00009850872B762F07C0662311F499270DC0B3
:101C10009051862B70E060E02AF09A95660F771F4E
:101C2000881FDAF7880F9695879597F908959F3F53
:101C300031F0915020F4879577956795B795880F87
:101C4000911D9695879597F9089525D0A0F0BEE748
:101C5000B91788F4BB279F3860F41616B11D672F9B
:101C6000782F8827985FF7CF869577956795B11D70
:101C700093959639C8F30895E894BB27662777278C
:101C8000CB0197F9089557FD9058440F551F59F00F
:101C90005F3F71F04795880F97FB991F61F09F3F59
:101CA00079F087950895121613061406551FF2CF82
:101CB0004695F1DF08C0161617061806991FF1CFD2
:0E1CC00086957105610508940895F894FFCF8C
:101CCE0000000000000000000001020203030303F5
:101CDE0004040404040404040505050505050505AE
:101CEE00050505050505050506060606060606068E
:101CFE000606060606060606060606060606060676
:101D0E00060606060606060607070707070707075D
:101D1E000707070707070707070707070707070745
:101D2E000707070707070707070707070707070735
:101D3E000707070707070707070707070707070725
:101D4E00070707070707070708080808080808080D
:101D5E0008080808080808080808080808080808F5
:101D6E0008080808080808080808080808080808E5
:101D7E0008080808080808080808080808080808D5
:101D8E0008080808080808080808080808080808C5
:101D9E0008080808080808080808080808080808B5
:101DAE0008080808080808080808080808080808A5
:101DBE000808080808080808080808080808080895
:081DCE000808080808080808CD
:00000001FF
