:100000000C942A000C9447000C9447000C94470071
:100010000C9447000C9447000C9447000C94470044
:100020000C9447000C9447000C9447000C94470034
:100030000C9447000C9447000C9447000C94470024
:100040000C9447000C9447000C9447000C94470014
:100050000C94470011241FBECFE5D8E0DEBFCDBF12
:1000600010E0A0E6B0E0E8E5F5E202C005900D92F0
:10007000A837B107D9F710E0A8E7B0E001C01D929A
:10008000A937B107E1F70E943E110C94AA120C9413
:100090000000EF92FF920F931F937B018C0120E0F1
:1000A00030E040E05FE40E94490388238CF0C801FF
:1000B000B70120E030E040E05FE40E94C1010E940F
:1000C000A9039B01AC01205030404040504806C07D
:1000D000C801B7010E94A9039B01AC01B901CA0183
:1000E0001F910F91FF90EF900895A0E0B0E0EBE733
:1000F000F0E00C947312DC012B01FA019C91923018
:1001000008F439C1EB018881823008F433C194309E
:1001100069F4843009F02FC111969C91119789815F
:10012000981709F428C1A0E6B0E025C1843009F48D
:1001300021C18230A9F4923009F01DC19A01AD01AC
:1001400088E0EA010990AE01E90109929E0181501F
:10015000C1F7E201898111969C918923818308C1AD
:10016000923009F407C112962D903C901397EB0141
:100170008A819B811496AD90BD90CD90DC901797AD
:10018000EC80FD800E811F819101281B390BB90184
:1001900037FF04C066277727621B730B6032710537
:1001A0000CF061C0121613066CF537014801062EDB
:1001B00004C096948794779467940A94D2F721E0C8
:1001C00030E040E050E004C0220F331F441F551FB1
:1001D0006A95D2F721503040404050402E213F21B7
:1001E00040235123211531054105510521F021E01E
:1001F00030E040E050E079018A01E628F72808293C
:1002000019293CC0232BD1F1260E371E350146019A
:10021000062E04C096948794779467940A94D2F734
:1002200021E030E040E050E004C0220F331F441FC3
:10023000551F6A95D2F721503040404050402A2146
:100240003B214C215D21211531054105510521F04E
:1002500021E030E040E050E059016A01A628B728CB
:10026000C828D9280BC0821593052CF01C01AA249C
:10027000BB24650103C0EE24FF24870111969C91E5
:10028000D20111968C91981709F445C0992339F041
:10029000A80197012A193B094C095D0906C0A6016E
:1002A00095012E193F09400B510B57FD08C01182D3
:1002B0003382228224833583468357831DC081E0A5
:1002C00081833382228288279927DC01821B930B4A
:1002D000A40BB50B84839583A683B7830DC0220F2F
:1002E000331F441F551F24833583468357838281E0
:1002F000938101979383828324813581468157813D
:10030000DA01C9010197A109B1098F5F9F4FAF4F72
:10031000BF4328F30BC0918333822282EA0CFB1C7B
:100320000C1D1D1DE482F5820683178383E0808304
:10033000248135814681578157FF1AC0C901AA27F8
:1003400097FDA095BA2F81709070A070B0705695EF
:10035000479537952795822B932BA42BB52B848318
:100360009583A683B7838281938101969383828349
:10037000DF0101C0D201CD01CDB7DEB7E2E10C94BF
:100380008F12A0E2B0E0E7ECF1E00C947F126983F9
:100390007A838B839C832D833E834F835887E9E048
:1003A000EE2EF12CEC0EFD1ECE010196B7010E943F
:1003B000D2048E010F5E1F4FCE010596B8010E9438
:1003C000D2048A8991E089278A8BC701B801AE01DE
:1003D000475E5F4F0E9475000E94FD03A096E6E015
:1003E0000C949B12A0E2B0E0E8EFF1E00C947F12D5
:1003F00069837A838B839C832D833E834F835887C5
:10040000F9E0EF2EF12CEC0EFD1ECE010196B701A6
:100410000E94D2048E010F5E1F4FCE010596B801D7
:100420000E94D204C701B801AE01475E5F4F0E942F
:1004300075000E94FD03A096E6E00C949B12A0E2DA
:10044000B0E0E5E2F2E00C94731269837A838B8367
:100450009C832D833E834F835887CE010196BE0136
:10046000675F7F4F0E94D204CE010596BE016F5E8A
:100470007F4F0E94D2049985923088F0898982301A
:10048000C8F0943019F4823051F404C0843029F457
:10049000923081F480E690E0C6C0923049F420E0CA
:1004A0009A858A89981321E02A87CE010996BBC0D4
:1004B000823049F420E09A858A89981321E02A8BBA
:1004C000CE014196B0C02D843E844F8458886D88FB
:1004D0007E888F88988CEE24FF248701AA24BB2471
:1004E000650140E050E060E070E0E0E0F0E0C10174
:1004F00081709070892BE9F0E60CF71C081D191D1E
:100500009A01AB012A0D3B1D4C1D5D1D80E090E062
:10051000A0E0B0E0E614F7040805190520F481E036
:1005200090E0A0E0B0E0BA01A901480F591F6A1F8E
:100530007B1FAA0CBB1CCC1CDD1C97FE08C081E0F5
:1005400090E0A0E0B0E0A82AB92ACA2ADB2A3196B6
:10055000E032F10549F0660C771C881C991C569412
:10056000479437942794C3CFFA85EA892B893C892D
:100570008B859C85280F391F2E5F3F4F17C0CA01FE
:1005800081709070892B61F016950795F794E79428
:1005900080E090E0A0E0B0E8E82AF92A0A2B1B2BC3
:1005A00076956795579547952F5F3F4F77FDE7CF36
:1005B0000CC0440F551F661F771F17FD4160EE0CDE
:1005C000FF1C001F111F21503040403090E05907A0
:1005D00090E0690790E4790760F32B8F3C8FDB0193
:1005E000CA018F779070A070B07080349105A1051A
:1005F000B10561F447FD0AC0E114F10401051105DC
:1006000029F0405C5F4F6F4F7F4F40781A8EFE1786
:1006100011F081E08A8F4D8F5E8F6F8F78A383E01A
:10062000898FCE0149960E94FD03A096E2E10C94C9
:100630008F12A8E1B0E0EFE1F3E00C947F12698340
:100640007A838B839C832D833E834F83588789E0F5
:10065000E82EF12CEC0EFD1ECE010196B7010E9492
:10066000D2048E010F5E1F4FCE010596B8010E9485
:10067000D2048985823040F08989823028F0C70110
:10068000B8010E944A0501C08FEF6896E6E00C941D
:100690009B12A8E1B0E0EFE4F3E00C947F126983D1
:1006A0007A838B839C832D833E834F83588789E095
:1006B000E82EF12CEC0EFD1ECE010196B7010E9432
:1006C000D2048E010F5E1F4FCE010596B8010E9425
:1006D000D2048985823040F08989823028F0C701B0
:1006E000B8010E944A0501C08FEF6896E6E00C94BD
:1006F0009B12A8E1B0E0EFE7F3E00C947F1269836E
:100700007A838B839C832D833E834F83588789E034
:10071000E82EF12CEC0EFD1ECE010196B7010E94D1
:10072000D2048E010F5E1F4FCE010596B8010E94C4
:10073000D2048985823040F08989823028F0C7014F
:10074000B8010E944A0501C081E06896E6E00C9479
:100750009B12ACE0B0E0EFEAF3E00C948312698303
:100760007A838B839C83CE010196BE016B5F7F4FA2
:100770000E94D2048D81823061F1823050F1843048
:1007800021F48E81882351F12EC02F81388537FDC9
:1007900020C06E812F3131051CF06623F9F023C093
:1007A0008EE190E0821B930B29853A854B855C8511
:1007B00004C056954795379527958A95D2F76623B5
:1007C000B1F050954095309521953F4F4F4F5F4F79
:1007D0000EC020E030E040E050E009C02FEF3FEFD6
:1007E0004FEF5FE704C020E030E040E050E8B9019F
:1007F000CA012C96E2E00C949F12DF92EF92FF92D6
:100800000F931F93FC01E480F58006811781D1804E
:100810008081823048F480E090E0A0E1B0E0E82AF6
:10082000F92A0A2B1B2BA5C0843009F49FC0823003
:1008300021F4EE24FF24870105C0E114F104010531
:10084000110519F4E0E0F0E096C0628173819FEF3A
:10085000623879070CF05BC022E83FEF261B370BAC
:100860002A3131052CF020E030E040E050E02AC091
:10087000B801A701022E04C0769567955795479554
:100880000A94D2F781E090E0A0E0B0E004C0880FC5
:10089000991FAA1FBB1F2A95D2F70197A109B10979
:1008A0008E219F21A023B1230097A105B10521F03E
:1008B00081E090E0A0E0B0E09A01AB01282B392B59
:1008C0004A2B5B2BDA01C9018F779070A070B07052
:1008D00080349105A105B10539F427FF09C0205CDA
:1008E0003F4F4F4F5F4F04C0215C3F4F4F4F5F4F13
:1008F000E0E0F0E02030A0E03A07A0E04A07A0E402
:100900005A0710F0E1E0F0E079018A0127C0603871
:10091000710564F5FB01E158FF4FD801C7018F77DE
:100920009070A070B07080349105A105B10539F4C4
:10093000E7FE0DC080E490E0A0E0B0E004C08FE3EB
:1009400090E0A0E0B0E0E80EF91E0A1F1B1F17FFA1
:1009500005C016950795F794E794319687E01695AC
:100960000795F794E7948A95D1F705C0EE24FF2404
:100970008701EFEFF0E06E2F679566276795902F60
:100980009F77D794DD24D7948E2F8695492F462BB9
:10099000582F5D29B701CA011F910F91FF90EF9069
:1009A000DF900895FC01DB01408151812281622F9B
:1009B0006F7770E0221F2227221F9381892F880FD3
:1009C000822B282F30E0991F9927991F11969C930D
:1009D000119721153105A9F54115510561057105DD
:1009E00011F482E037C082E89FEF13969C938E93B8
:1009F00012979A01AB0167E0220F331F441F551F66
:100A00006A95D1F783E08C930DC0220F331F441FEA
:100A1000551F12968D919C911397019713969C9355
:100A20008E931297203080E0380780E0480780E4FA
:100A3000580758F314962D933D934D935C93179755
:100A400008952F3F310579F4411551056105710570
:100A500019F484E08C93089564FF03C081E08C93C3
:100A600012C01C9210C02F57304013963C932E9307
:100A7000129783E08C9387E0440F551F661F771F02
:100A80008A95D1F7706414964D935D936D937C9322
:100A9000179708951F93DC01FB019C91923008F495
:100AA00047C08081823008F443C0943051F41196DD
:100AB0001C91843099F58181682F70E0611B710968
:100AC0003FC0843021F0923031F48230B9F181811D
:100AD000882389F12DC011961C9111978230F1F075
:100AE00081811817D9F412962D913C911397828128
:100AF00093818217930794F028173907BCF0149656
:100B00008D919D910D90BC91A02D248135814681C0
:100B10005781281739074A075B0718F4112341F05A
:100B20000AC082179307A407B50740F4112319F0F0
:100B300061E070E005C06FEF7FEF02C060E070E041
:100B4000CB011F910895DF93CF930F92CDB7DEB7FE
:100B5000EAE3F0E089E08083E7E3F0E01082E4E399
:100B6000F0E01082E1E3F0E010820F90CF91DF918E
:100B70000895DF93CF9300D000D00F92CDB7DEB7AA
:100B800089836A838981282F30E03C832B838B8182
:100B90009C8181309105D1F02B813C81223031053F
:100BA0002CF48B819C81009761F01EC02B813C81CD
:100BB0002230310581F08B819C818330910581F059
:100BC00013C0EAE3F0E08A8180830EC0E7E3F0E03F
:100BD0008A81808309C0E4E3F0E08A81808304C0D5
:100BE000E1E3F0E08A8180830F900F900F900F90E7
:100BF0000F90CF91DF910895DF93CF9300D000D075
:100C00000F92CDB7DEB789836A838981282F30E0C0
:100C10003C832B838B819C8181309105D1F02B818A
:100C20003C81223031052CF48B819C81009761F04E
:100C30001EC02B813C812230310581F08B819C814B
:100C40008330910581F013C0EBE3F0E08A8180836B
:100C50000EC0E8E3F0E08A81808309C0E5E3F0E0BC
:100C60008A81808304C0E2E3F0E08A8180830F9070
:100C70000F900F900F900F90CF91DF910895DF9319
:100C8000CF9300D000D0CDB7DEB789838981282FDC
:100C900030E03B832A838A819B8181309105E9F092
:100CA0002A813B81223031052CF48A819B81009777
:100CB00061F02AC02A813B8122303105B1F08A815E
:100CC0009B8183309105C9F01FC0ABE3B0E0EBE33B
:100CD000F0E0808180958C9317C0A8E3B0E0E8E352
:100CE000F0E0808180958C930FC0A5E3B0E0E5E350
:100CF000F0E0808180958C9307C0A2E3B0E0E2E34E
:100D0000F0E0808180958C930F900F900F900F9062
:100D1000CF91DF910895DF93CF9300D000D00F9251
:100D2000CDB7DEB789836A834B838A81883008F028
:100D3000CAC08B81823008F0C6C08981282F30E07C
:100D40003D832C836C817D816130710509F441C044
:100D50008C819D818230910534F42C813D81211557
:100D6000310571F0B0C06C817D816230710509F48C
:100D700059C08C819D818330910509F47CC0A3C04A
:100D8000AAE3B0E0EAE3F0E08081482F8A81282FCF
:100D900030E081E090E002C0880F991F2A95E2F7C9
:100DA000809584238C93AAE3B0E0EAE3F0E08081AD
:100DB000482F8B81282F30E08A81882F90E0B9015D
:100DC00002C0660F771F8A95E2F7CB01842B8C93C4
:100DD0007AC0A7E3B0E0E7E3F0E08081482F8A81A2
:100DE000282F30E081E090E002C0880F991F2A95FB
:100DF000E2F7809584238C93A7E3B0E0E7E3F0E08B
:100E00008081482F8B81282F30E08A81882F90E0C5
:100E1000B90102C0660F771F8A95E2F7CB01842BD8
:100E20008C9351C0A4E3B0E0E4E3F0E08081482F6C
:100E30008A81282F30E081E090E002C0880F991F5E
:100E40002A95E2F7809584238C93A4E3B0E0E4E351
:100E5000F0E08081482F8B81282F30E08A81882F15
:100E600090E0B90102C0660F771F8A95E2F7CB01C7
:100E7000842B8C9328C0A1E3B0E0E1E3F0E0808113
:100E8000482F8A81282F30E081E090E002C0880F4F
:100E9000991F2A95E2F7809584238C93A1E3B0E013
:100EA000E1E3F0E08081482F8B81282F30E08A81B8
:100EB000882F90E0B90102C0660F771F8A95E2F78C
:100EC000CB01842B8C9381E00F900F900F900F90AB
:100ED0000F90CF91DF910895DF93CF9300D000D092
:100EE0000F92CDB7DEB789836A834B838A818830BE
:100EF00008F0CAC08B81823008F0C6C08981282FD3
:100F000030E03D832C836C817D816130710509F473
:100F100041C08C819D818230910534F42C813D81CA
:100F20002115310571F0B0C06C817D816230710591
:100F300009F459C08C819D818330910509F47CC0EE
:100F4000A3C0ABE3B0E0EBE3F0E08081482F8A81FF
:100F5000282F30E081E090E002C0880F991F2A9589
:100F6000E2F7809584238C93ABE3B0E0EBE3F0E011
:100F70008081482F8B81282F30E08A81882F90E054
:100F8000B90102C0660F771F8A95E2F7CB01842B67
:100F90008C937AC0A8E3B0E0E8E3F0E08081482FCA
:100FA0008A81282F30E081E090E002C0880F991FED
:100FB0002A95E2F7809584238C93A8E3B0E0E8E3D8
:100FC000F0E08081482F8B81282F30E08A81882FA4
:100FD00090E0B90102C0660F771F8A95E2F7CB0156
:100FE000842B8C9351C0A5E3B0E0E5E3F0E0808171
:100FF000482F8A81282F30E081E090E002C0880FDE
:10100000991F2A95E2F7809584238C93A5E3B0E09D
:10101000E5E3F0E08081482F8B81282F30E08A8142
:10102000882F90E0B90102C0660F771F8A95E2F71A
:10103000CB01842B8C9328C0A2E3B0E0E2E3F0E084
:101040008081482F8A81282F30E081E090E002C023
:10105000880F991F2A95E2F7809584238C93A2E349
:10106000B0E0E2E3F0E08081482F8B81282F30E070
:101070008A81882F90E0B90102C0660F771F8A9598
:10108000E2F7CB01842B8C9381E00F900F900F90AF
:101090000F900F90CF91DF910895DF93CF9300D001
:1010A00000D00F92CDB7DEB789836A838981282F5C
:1010B00030E03C832B838B819C818130910549F109
:1010C0002B813C81223031052CF48B819C8100974F
:1010D00061F04BC02B813C812230310549F18B817D
:1010E0009C818330910599F140C0ABE3B0E0EBE324
:1010F000F0E08081482F8A81282F30E081E090E065
:10110000022E02C0880F991F0A94E2F784278C935D
:101110002CC0E8E3F0E08A81282F30E081E090E005
:10112000022E02C0880F991F0A94E2F780831DC027
:10113000E5E3F0E08A81282F30E081E090E0022EA4
:1011400002C0880F991F0A94E2F780830EC0E2E381
:10115000F0E08A81282F30E081E090E0022E02C08A
:10116000880F991F0A94E2F780830F900F900F90D9
:101170000F900F90CF91DF910895DF93CF9300D020
:1011800000D000D0CDB7DEB789837B836A838981A5
:10119000282F30E03D832C838C819D818130910507
:1011A000E1F02C813D81223031052CF48C819D8130
:1011B000009761F026C02C813D8122303105A1F0DD
:1011C0008C819D8183309105B1F01BC0E9E3F0E093
:1011D0008081EA81FB81808314C0E6E3F0E08081B6
:1011E000EA81FB8180830DC0E3E3F0E08081EA8146
:1011F000FB81808306C0E0E3F0E08081EA81FB812F
:10120000808326960FB6F894DEBF0FBECDBFCF9178
:10121000DF910895DF93CF93CDB7DEB727970FB651
:10122000F894DEBF0FBECDBF89836A835C834B8396
:101230008981282F30E03E832D834D815E814130AE
:10124000510559F18D819E818230910534F42D81B3
:101250003E812115310569F05BC04D815E814230D0
:10126000510579F18D819E818330910509F43DC04E
:101270004FC0E9E3F0E08081282F30E08A81882F99
:1012800090E0A90102C0559547958A95E2F7CA01F9
:101290008170EB81FC8180833BC0E6E3F0E08081DC
:1012A000282F30E08A81882F90E0A90102C055954F
:1012B00047958A95E2F7CA018170EB81FC818083B2
:1012C00027C0E3E3F0E08081282F30E08A81882F77
:1012D00090E0A90102C0559547958A95E2F7CA01A9
:1012E0008170EB81FC81808313C0E0E3F0E08081BA
:1012F000282F30E08A81882F90E0A90102C05595FF
:1013000047958A95E2F7CA018170EB81FC81808361
:1013100027960FB6F894DEBF0FBECDBFCF91DF91F9
:101320000895DF93CF93CDB7DEB7E8970FB6F89463
:10133000DEBF0FBECDBF81E06FEF0E94B90580E038
:1013400060E041E00E948B0680E061E041E00E94A5
:101350008B0680E062E041E00E948B0680E090E036
:10136000A8E4B2E48DAB9EABAFABB8AF6DA97EA9DC
:101370008FA998AD20E030E04AEF54E40E941F02AC
:10138000DC01CB0189AB9AABABABBCAB69A97AA949
:101390008BA99CA920E030E040E85FE30E9479033C
:1013A00088232CF481E090E098AB8FA73FC069A917
:1013B0007AA98BA99CA920E03FEF4FE757E40E9450
:1013C000190318164CF56DA97EA98FA998AD20E0D8
:1013D00030E040E251E40E941F02DC01CB01BC017D
:1013E000CD010E944900DC01CB0198AB8FA70FC053
:1013F00088EC90E09EA78DA78DA59EA50197F1F79B
:101400009EA78DA78FA598A9019798AB8FA78FA5A9
:1014100098A9009769F714C069A97AA98BA99CA912
:101420000E944900DC01CB0198AB8FA78FA598A93A
:101430009CA78BA78BA59CA50197F1F79CA78BA7D1
:1014400088E30E948C0B80E090E0A0E8BFE38FA3CC
:1014500098A7A9A7BAA76FA178A589A59AA520E002
:1014600030E04AEF54E40E941F02DC01CB018BA361
:101470009CA3ADA3BEA36BA17CA18DA19EA120E0E6
:1014800030E040E85FE30E94790388232CF481E098
:1014900090E09AA389A33FC06BA17CA18DA19EA1DE
:1014A00020E03FEF4FE757E40E94190318164CF570
:1014B0006FA178A589A59AA520E030E040E251E42B
:1014C0000E941F02DC01CB01BC01CD010E9449003A
:1014D000DC01CB019AA389A30FC088EC90E098A30C
:1014E0008F8F8F8D98A10197F1F798A38F8F89A186
:1014F0009AA101979AA389A389A19AA1009769F754
:1015000014C06BA17CA18DA19EA10E944900DC01A9
:10151000CB019AA389A389A19AA19E8F8D8F8D8DCE
:101520009E8D0197F1F79E8F8D8F8CE00E948C0B22
:1015300080E090E0A0E8BFE3898F9A8FAB8FBC8FEB
:10154000698D7A8D8B8D9C8D20E030E04AEF54E4DC
:101550000E941F02DC01CB018D8B9E8BAF8BB88F5D
:101560006D897E898F89988D20E030E040E85FE3C7
:101570000E94790388232CF481E090E09C8B8B8B74
:101580003FC06D897E898F89988D20E03FEF4FE7BE
:1015900057E40E94190318164CF5698D7A8D8B8DCE
:1015A0009C8D20E030E040E251E40E941F02DC010B
:1015B000CB01BC01CD010E944900DC01CB019C8B19
:1015C0008B8B0FC088EC90E09A8B898B89899A89E4
:1015D0000197F1F79A8B898B8B899C8901979C8B5A
:1015E0008B8B8B899C89009769F714C06D897E89E4
:1015F0008F89988D0E944900DC01CB019C8B8B8BDD
:101600008B899C89988B8F878F8598890197F1F7B3
:10161000988B8F8781E00E948C0B80E090E0A0E0A7
:10162000B0E48B879C87AD87BE876B857C858D8575
:101630009E8520E030E04AEF54E40E941F02DC0166
:10164000CB018F839887A987BA876F817885898531
:101650009A8520E030E040E85FE30E947903882328
:101660002CF481E090E09E838D833FC06F8178856C
:1016700089859A8520E03FEF4FE757E40E941903E0
:1016800018164CF56B857C858D859E8520E030E0B5
:1016900040E251E40E941F02DC01CB01BC01CD01FC
:1016A0000E944900DC01CB019E838D830FC088EC32
:1016B00090E09C838B838B819C810197F1F79C83C5
:1016C0008B838D819E8101979E838D838D819E81E9
:1016D000009769F714C06F81788589859A850E9483
:1016E0004900DC01CB019E838D838D819E819A838D
:1016F000898389819A810197F1F79A83898386E0AA
:101700000E948C0B81E0E8960FB6F894DEBF0FBE06
:10171000CDBFCF91DF910895DF93CF93CDB7DEB7E3
:101720006D970FB6F894DEBF0FBECDBF8D8F80E0F2
:1017300060E040E00E946C0781E06D8D0E94FC0536
:1017400080E062E041E00E946C0780E090E0A0E869
:10175000BFE3898F9A8FAB8FBC8F698D7A8D8B8D0C
:101760009C8D20E030E04AEF54E40E941F02DC012F
:10177000CB018D8B9E8BAF8BB88F6D897E898F89C6
:10178000988D20E030E040E85FE30E9479038823F1
:101790002CF481E090E09C8B8B8B3FC06D897E891F
:1017A0008F89988D20E03FEF4FE757E40E9419039F
:1017B00018164CF5698D7A8D8B8D9C8D20E030E06C
:1017C00040E251E40E941F02DC01CB01BC01CD01CB
:1017D0000E944900DC01CB019C8B8B8B0FC088ECF5
:1017E00090E09A8B898B89899A890197F1F79A8B76
:1017F000898B8B899C8901979C8B8B8B8B899C898E
:10180000009769F714C06D897E898F89988D0E9431
:101810004900DC01CB019C8B8B8B8B899C89988B3D
:101820008F878F8598890197F1F7988B8F8780E054
:1018300062E040E00E946C0780E090E0A0E8BFE337
:101840008B879C87AD87BE876B857C858D859E85C4
:1018500020E030E04AEF54E40E941F02DC01CB019B
:101860008F839887A987BA876F81788589859A85BC
:1018700020E030E040E85FE30E94790388232CF405
:1018800081E090E09E838D833FC06F81788589855C
:101890009A8520E03FEF4FE757E40E94190318169E
:1018A0004CF56B857C858D859E8520E030E040E29F
:1018B00051E40E941F02DC01CB01BC01CD010E945A
:1018C0004900DC01CB019E838D830FC088EC90E042
:1018D0009C838B838B819C810197F1F79C838B8305
:1018E0008D819E8101979E838D838D819E8100973E
:1018F00069F714C06F81788589859A850E944900AF
:10190000DC01CB019E838D838D819E819A838983A7
:1019100089819A810197F1F79A83898381E06D9695
:101920000FB6F894DEBF0FBECDBFCF91DF91089503
:10193000DF93CF93CDB7DEB76D970FB6F894DEBFC8
:101940000FBECDBF8D8F80E060E041E00E946C074C
:1019500081E06D8D0E94FC0580E062E041E00E9424
:101960006C0780E090E0A0E8BFE3898F9A8FAB8F8F
:10197000BC8F698D7A8D8B8D9C8D20E030E04AEF95
:1019800054E40E941F02DC01CB018D8B9E8BAF8B38
:10199000B88F6D897E898F89988D20E030E040E88E
:1019A0005FE30E94790388232CF481E090E09C8B14
:1019B0008B8B3FC06D897E898F89988D20E03FEFAA
:1019C0004FE757E40E94190318164CF5698D7A8D7C
:1019D0008B8D9C8D20E030E040E251E40E941F029C
:1019E000DC01CB01BC01CD010E944900DC01CB012F
:1019F0009C8B8B8B0FC088EC90E09A8B898B8989AC
:101A00009A890197F1F79A8B898B8B899C89019729
:101A10009C8B8B8B8B899C89009769F714C06D898F
:101A20007E898F89988D0E944900DC01CB019C8BB7
:101A30008B8B8B899C89988B8F878F859889019751
:101A4000F1F7988B8F8780E062E040E00E946C079E
:101A500080E090E0A0E8BFE38B879C87AD87BE87DE
:101A60006B857C858D859E8520E030E04AEF54E4CF
:101A70000E941F02DC01CB018F839887A987BA8758
:101A80006F81788589859A8520E030E040E85FE3C2
:101A90000E94790388232CF481E090E09E838D835B
:101AA0003FC06F81788589859A8520E03FEF4FE7B9
:101AB00057E40E94190318164CF56B857C858D85BB
:101AC0009E8520E030E040E251E40E941F02DC01EC
:101AD000CB01BC01CD010E944900DC01CB019E83FA
:101AE0008D830FC088EC90E09C838B838B819C81DD
:101AF0000197F1F79C838B838D819E8101979E8353
:101B00008D838D819E81009769F714C06F817885E0
:101B100089859A850E944900DC01CB019E838D83D3
:101B20008D819E819A83898389819A810197F1F7BA
:101B30009A83898381E06D960FB6F894DEBF0FBE5D
:101B4000CDBFCF91DF910895DF93CF9300D000D028
:101B5000CDB7DEB78A836B838A818230C8F48B81EC
:101B60008031B0F48A81882F90E000249695879583
:101B70000794969587950794982F802D982F8B81A1
:101B8000890F898389818068898389810E948C0B70
:101B90000F900F900F900F90CF91DF910895DF93EA
:101BA000CF9300D000D000D0CDB7DEB79C838B831D
:101BB0006D834E838D816E810E94A40D1A821982DD
:101BC00055C08D81882F90E09C0122953295307F01
:101BD0003227207F32278E81882F90E0280F391FEF
:101BE0008A81882F90E0820F931F803191057CF4C9
:101BF0008A81282F30E08B819C81FC01E20FF31F4A
:101C000080810E94980C8A818F5F8A832FC08D818A
:101C1000882F90E09C0122953295307F3227207FDB
:101C200032278E81882F90E0280F391F8A81882FD4
:101C300090E0820F931F8031910551F489818823B0
:101C400039F481E060E00E94A40D81E089830EC038
:101C50008A81282F30E08B819C81FC01E20FF31FE9
:101C600080810E94980C8A818F5F8A838A81282FC5
:101C700030E08B819C81FC01E20FF31F808188237F
:101C8000C1F08D81882F90E09C0122953295307FA4
:101C90003227207F32278E81882F90E0280F391F2E
:101CA0008A81882F90E0820F931F803291050CF477
:101CB00088CF81E026960FB6F894DEBF0FBECDBF69
:101CC000CF91DF910895DF93CF9300D000D000D063
:101CD000CDB7DEB78C837E836D838C81883050F5E1
:101CE0008C81882F90E0880F991F880F991F880F8B
:101CF000991F8B838B8180688B838B810E948C0BD7
:101D00001A8219820FC029813A818D819E81FC013E
:101D1000E20FF31F80810E94980C89819A810196BD
:101D20009A83898389819A818830910564F382E05E
:101D30000E948C0B81E026960FB6F894DEBF0FBE92
:101D4000CDBFCF91DF910895DF93CF9300D000D026
:101D5000CDB7DEB789836A834B838A816B810E940A
:101D6000A40D89810E94980C0F900F900F900F90F6
:101D7000CF91DF910895DF93CF9300D000D00F92E1
:101D8000CDB7DEB78C836D8381E090E09B838A833F
:101D90001982198212C08C81282F30E08A819B81A0
:101DA000AC01429FC001439F900D529F900D1124A2
:101DB0009B838A8389818F5F898399818D8198171D
:101DC00050F38A819B810F900F900F900F900F908E
:101DD000CF91DF910895DF93CF93CDB7DEB72897EA
:101DE0000FB6F894DEBF0FBECDBF9F838E831D82DA
:101DF0001C828E819F819A8389838E819F81009727
:101E000089F480E30E94980C48C089819A812AE075
:101E100030E0B9010E945F12CB019A8389838C81E3
:101E20008F5F8C8389819A81009779F78E819F815A
:101E30009A8389831D822DC09C818D81292F281B27
:101E4000822F982F91508AE0692F0E94BB0E9C012F
:101E500089819A81B9010E945F12CB018B838B81AA
:101E6000805D0E94980C9C818D81292F281B822FD8
:101E7000982F91508AE0692F0E94BB0E9C018981A6
:101E80009A81B9010E945F129A8389838D818F5F45
:101E90008D839D818C81981778F228960FB6F894DF
:101EA000DEBF0FBECDBFCF91DF910895DF93CF93FB
:101EB0000F92CDB7DEB782E064E041E00E948B066E
:101EC00082E065E041E00E948B0682E066E041E04E
:101ED0000E948B0682E067E041E00E948B0682E070
:101EE00064E041E00E946C0782E065E041E00E940E
:101EF0006C0782E066E041E00E946C0782E067E0E8
:101F000041E00E946C0782E060E040E00E948B06A6
:101F100082E061E040E00E948B0682E062E040E007
:101F20000E948B0682E063E040E00E948B0682E024
:101F300060E041E00E946C0782E061E041E00E94C5
:101F40006C0782E062E041E00E946C0782E063E09F
:101F500041E00E946C070F90CF91DF910895DF93CD
:101F6000CF93CDB7DEB7E8970FB6F894DEBF0FBEBC
:101F7000CDBF9BAB8AABCE0142969DAB8CABE8E666
:101F8000F0E0FFABEEABF0E1F8AFEEA9FFA9008007
:101F90008EA99FA901969FAB8EABECA9FDA90082EB
:101FA0008CA99DA901969DAB8CAB98AD915098AF33
:101FB000E8ADEE2351F782E08AA382E08BA382E0B2
:101FC0008CA382E08DA382E08EA382E08FA382E0C7
:101FD00088A782E089A71AA681E08BA782E08CA758
:101FE00083E08DA784E08EA785E08FA786E088AB8D
:101FF00087E089AB1F863DC18F85282F30E0CE0159
:102000008696FC01E20FF31F40818F85282F30E078
:10201000CE018E96FC01E20FF31F9081842F692F71
:1020200040E00E946C07188A06C18889282F30E09A
:10203000CE018296FC01E20FF31F40818889282F90
:1020400030E0CE018A96FC01E20FF31F90819E01E1
:102050002F5E3F4F842F692FA9010E940A098989A9
:10206000882309F0E5C080E090E0A0E2B1E48B872E
:102070009C87AD87BE876B857C858D859E8520E09E
:1020800030E04AEF54E40E941F02DC01CB018F8351
:102090009887A987BA876F81788589859A8520E096
:1020A00030E040E85FE30E94790388232CF481E06C
:1020B00090E09E838D833FC06F81788589859A8566
:1020C00020E03FEF4FE757E40E94190318164CF544
:1020D0006B857C858D859E8520E030E040E251E473
:1020E0000E941F02DC01CB01BC01CD010E9449000E
:1020F000DC01CB019E838D830FC088EC90E09C8334
:102100008B838B819C810197F1F79C838B838D81DD
:102110009E8101979E838D838D819E81009769F7B3
:1021200014C06F81788589859A850E944900DC01F9
:10213000CB019E838D838D819E819A838983898142
:102140009A810197F1F79A8389838889282F30E053
:10215000CE018296FC01E20FF31F40818889282F6F
:1021600030E0CE018A96FC01E20FF31F90819E01C0
:102170002F5E3F4F842F692FA9010E940A09898988
:10218000882309F055C01AC08889282F30E0CE0175
:102190008296FC01E20FF31F40818889282F30E0EE
:1021A000CE018A96FC01E20FF31F90819E012F5E03
:1021B0003F4F842F692FA9010E940A09898988232A
:1021C00019F38F85282F30E0CE018696FC01E20FAF
:1021D000F31F40818F85282F30E0CE018E96FC01C1
:1021E000E20FF31F9081842F692F41E00E946C075A
:1021F0008889282F30E08F85482F50E0220F331F29
:10220000220F331FCE010196820F931F840F951F5B
:10221000FC0171968081EAA9FBA9808381E0E896A0
:102220000FB6F894DEBF0FBECDBFCF91DF910895FA
:1022300088898F5F888B8889843008F4F6CE8F85F3
:10224000282F30E0CE018696FC01E20FF31F40817B
:102250008F85282F30E0CE018E96FC01E20FF31F10
:102260009081842F692F41E00E946C078F858F5FDA
:102270008F878F85843008F4BFCEBCCEDF93CF9399
:10228000CDB7DEB72B970FB6F894DEBF0FBECDBF2C
:102290000E94560F0E9491091E821D8281E08A834E
:1022A0008EE00E948C0BCE0107960E94AF0F8F81AB
:1022B0000E94980C8F81282F30E03B872A874A851F
:1022C0005B854F32510509F471C08A859B85803347
:1022D00091058CF42A853B852B323105C9F04A855E
:1022E0005B854D32510561F18A859B858A32910566
:1022F00009F43EC0CFC02A853B852D33310509F452
:102300006FC04A855B854336510509F4BFC0C2C022
:102310008A81813051F48D819E819C838B831E82C2
:102320001D821A828BE28983BECF8B819C812D8195
:102330003E81820F931F9C838B831E821D82B3CFAD
:102340008A81813051F48D819E819C838B831E8292
:102350001D821A828DE28983A6CF8B819C812D817B
:102360003E81821B930B9C838B831E821D829BCF9D
:102370008A81813051F48D819E819C838B831E8262
:102380001D821A828AE289838ECF8B819C812D8166
:102390003E81AC01429FC001439F900D529F900D22
:1023A00011249C838B831E821D827DCF8A81813084
:1023B00051F48D819E819C838B831E821D821A82A3
:1023C0008FE2898370CF8B819C812D813E81B90101
:1023D0000E945F12CB019C838B831E821D8263CF80
:1023E0008981282F30E039872887488559854B32E5
:1023F0005105B1F0888599858C32910534F4288592
:1024000039852A323105F1F036C0488559854D327B
:10241000510579F0888599858F32910511F12BC08E
:102420008B819C812D813E81820F931F9C838B83A6
:1024300022C08B819C812D813E81821B930B9C83CA
:102440008B8319C08B819C812D813E81AC01429F81
:10245000C001439F900D529F900D11249C838B834C
:102460000AC08B819C812D813E81B9010E945F123F
:10247000CB019C838B838B819C810E94EB0E1C8201
:102480001B821E821D8281E08A830DCF81E00E9423
:102490008C0B09CF8D819E819C01220F331FC901B6
:1024A000880F991F880F991F280F391F8F81882F38
:1024B00090E0820F931FC0979E838D83F4CEAA1B5A
:1024C000BB1B51E107C0AA1FBB1FA617B70710F01F
:1024D000A61BB70B881F991F5A95A9F78095909551
:1024E000BC01CD0108952F923F924F925F926F925F
:1024F0007F928F929F92AF92BF92CF92DF92EF9294
:10250000FF920F931F93CF93DF93CDB7DEB7CA1B14
:10251000DB0B0FB6F894DEBF0FBECDBF09942A883F
:10252000398848885F846E847D848C849B84AA84E7
:10253000B984C884DF80EE80FD800C811B81AA8174
:10254000B981CE0FD11D0FB6F894DEBF0FBECDBF3F
:08255000ED010895F894FFCF9E
:1025580000000000000000003738392F3435362AD3
:082568003132332D63303D2BAD
:00000001FF
